{
  "_format": "hh-sol-artifact-1",
  "contractName": "fyp_contract",
  "sourceName": "contracts/de_renters.sol",
  "abi": [
    {
      "inputs": [],
      "stateMutability": "nonpayable",
      "type": "constructor"
    },
    {
      "anonymous": false,
      "inputs": [
        {
          "indexed": true,
          "internalType": "uint256",
          "name": "apartmentId",
          "type": "uint256"
        },
        {
          "indexed": true,
          "internalType": "uint256",
          "name": "bookingId",
          "type": "uint256"
        },
        {
          "indexed": true,
          "internalType": "address",
          "name": "tenant",
          "type": "address"
        },
        {
          "indexed": false,
          "internalType": "uint256[]",
          "name": "dates",
          "type": "uint256[]"
        },
        {
          "indexed": false,
          "internalType": "uint256",
          "name": "totalPrice",
          "type": "uint256"
        },
        {
          "indexed": false,
          "internalType": "uint256",
          "name": "timestamp",
          "type": "uint256"
        }
      ],
      "name": "ApartmentBooked",
      "type": "event"
    },
    {
      "anonymous": false,
      "inputs": [
        {
          "indexed": true,
          "internalType": "uint256",
          "name": "id",
          "type": "uint256"
        },
        {
          "indexed": true,
          "internalType": "address",
          "name": "owner",
          "type": "address"
        },
        {
          "indexed": false,
          "internalType": "string",
          "name": "name",
          "type": "string"
        },
        {
          "indexed": false,
          "internalType": "uint256",
          "name": "price",
          "type": "uint256"
        },
        {
          "indexed": false,
          "internalType": "uint256",
          "name": "timestamp",
          "type": "uint256"
        }
      ],
      "name": "ApartmentCreated",
      "type": "event"
    },
    {
      "anonymous": false,
      "inputs": [
        {
          "indexed": true,
          "internalType": "uint256",
          "name": "id",
          "type": "uint256"
        },
        {
          "indexed": true,
          "internalType": "address",
          "name": "owner",
          "type": "address"
        },
        {
          "indexed": false,
          "internalType": "uint256",
          "name": "timestamp",
          "type": "uint256"
        }
      ],
      "name": "ApartmentDeleted",
      "type": "event"
    },
    {
      "anonymous": false,
      "inputs": [
        {
          "indexed": true,
          "internalType": "uint256",
          "name": "apartmentId",
          "type": "uint256"
        },
        {
          "indexed": true,
          "internalType": "uint256",
          "name": "bookingId",
          "type": "uint256"
        },
        {
          "indexed": true,
          "internalType": "address",
          "name": "tenant",
          "type": "address"
        },
        {
          "indexed": false,
          "internalType": "uint256",
          "name": "refundAmount",
          "type": "uint256"
        },
        {
          "indexed": false,
          "internalType": "uint256",
          "name": "timestamp",
          "type": "uint256"
        }
      ],
      "name": "BookingCancelled",
      "type": "event"
    },
    {
      "anonymous": false,
      "inputs": [
        {
          "indexed": true,
          "internalType": "uint256",
          "name": "apartmentId",
          "type": "uint256"
        },
        {
          "indexed": true,
          "internalType": "uint256",
          "name": "bookingId",
          "type": "uint256"
        },
        {
          "indexed": true,
          "internalType": "address",
          "name": "tenant",
          "type": "address"
        },
        {
          "indexed": false,
          "internalType": "uint256",
          "name": "date",
          "type": "uint256"
        },
        {
          "indexed": false,
          "internalType": "uint256",
          "name": "timestamp",
          "type": "uint256"
        }
      ],
      "name": "CheckedIn",
      "type": "event"
    },
    {
      "anonymous": false,
      "inputs": [
        {
          "indexed": true,
          "internalType": "address",
          "name": "previousOwner",
          "type": "address"
        },
        {
          "indexed": true,
          "internalType": "address",
          "name": "newOwner",
          "type": "address"
        }
      ],
      "name": "OwnershipTransferred",
      "type": "event"
    },
    {
      "anonymous": false,
      "inputs": [
        {
          "indexed": true,
          "internalType": "uint256",
          "name": "apartmentId",
          "type": "uint256"
        },
        {
          "indexed": true,
          "internalType": "uint256",
          "name": "bookingId",
          "type": "uint256"
        },
        {
          "indexed": true,
          "internalType": "address",
          "name": "tenant",
          "type": "address"
        },
        {
          "indexed": false,
          "internalType": "uint256",
          "name": "amount",
          "type": "uint256"
        },
        {
          "indexed": false,
          "internalType": "uint256",
          "name": "timestamp",
          "type": "uint256"
        }
      ],
      "name": "PaymentRefunded",
      "type": "event"
    },
    {
      "anonymous": false,
      "inputs": [
        {
          "indexed": true,
          "internalType": "uint256",
          "name": "apartmentId",
          "type": "uint256"
        },
        {
          "indexed": true,
          "internalType": "uint256",
          "name": "bookingId",
          "type": "uint256"
        },
        {
          "indexed": true,
          "internalType": "address",
          "name": "owner",
          "type": "address"
        },
        {
          "indexed": false,
          "internalType": "uint256",
          "name": "amount",
          "type": "uint256"
        },
        {
          "indexed": false,
          "internalType": "uint256",
          "name": "timestamp",
          "type": "uint256"
        }
      ],
      "name": "PaymentReleased",
      "type": "event"
    },
    {
      "anonymous": false,
      "inputs": [
        {
          "indexed": true,
          "internalType": "uint256",
          "name": "apartmentId",
          "type": "uint256"
        },
        {
          "indexed": true,
          "internalType": "uint256",
          "name": "reviewId",
          "type": "uint256"
        },
        {
          "indexed": true,
          "internalType": "address",
          "name": "reviewer",
          "type": "address"
        },
        {
          "indexed": false,
          "internalType": "uint256",
          "name": "timestamp",
          "type": "uint256"
        }
      ],
      "name": "ReviewAdded",
      "type": "event"
    },
    {
      "stateMutability": "payable",
      "type": "fallback"
    },
    {
      "inputs": [
        {
          "internalType": "uint256",
          "name": "aid",
          "type": "uint256"
        },
        {
          "internalType": "string",
          "name": "reviewText",
          "type": "string"
        }
      ],
      "name": "addReview",
      "outputs": [],
      "stateMutability": "nonpayable",
      "type": "function"
    },
    {
      "inputs": [
        {
          "internalType": "uint256",
          "name": "aid",
          "type": "uint256"
        },
        {
          "internalType": "uint256[]",
          "name": "dates",
          "type": "uint256[]"
        }
      ],
      "name": "bookApartment",
      "outputs": [],
      "stateMutability": "payable",
      "type": "function"
    },
    {
      "inputs": [
        {
          "internalType": "uint256",
          "name": "aid",
          "type": "uint256"
        },
        {
          "internalType": "uint256",
          "name": "bookingId",
          "type": "uint256"
        }
      ],
      "name": "checkInApartment",
      "outputs": [],
      "stateMutability": "nonpayable",
      "type": "function"
    },
    {
      "inputs": [
        {
          "internalType": "string",
          "name": "name",
          "type": "string"
        },
        {
          "internalType": "string",
          "name": "description",
          "type": "string"
        },
        {
          "internalType": "string",
          "name": "location",
          "type": "string"
        },
        {
          "internalType": "string",
          "name": "images",
          "type": "string"
        },
        {
          "internalType": "uint256",
          "name": "rooms",
          "type": "uint256"
        },
        {
          "internalType": "uint256",
          "name": "price",
          "type": "uint256"
        }
      ],
      "name": "createAppartment",
      "outputs": [],
      "stateMutability": "nonpayable",
      "type": "function"
    },
    {
      "inputs": [
        {
          "internalType": "uint256",
          "name": "id",
          "type": "uint256"
        }
      ],
      "name": "deleteAppartment",
      "outputs": [],
      "stateMutability": "nonpayable",
      "type": "function"
    },
    {
      "inputs": [
        {
          "internalType": "uint256",
          "name": "id",
          "type": "uint256"
        }
      ],
      "name": "getApartment",
      "outputs": [
        {
          "components": [
            {
              "internalType": "uint256",
              "name": "id",
              "type": "uint256"
            },
            {
              "internalType": "string",
              "name": "name",
              "type": "string"
            },
            {
              "internalType": "string",
              "name": "description",
              "type": "string"
            },
            {
              "internalType": "string",
              "name": "location",
              "type": "string"
            },
            {
              "internalType": "string",
              "name": "images",
              "type": "string"
            },
            {
              "internalType": "uint256",
              "name": "rooms",
              "type": "uint256"
            },
            {
              "internalType": "uint256",
              "name": "price",
              "type": "uint256"
            },
            {
              "internalType": "address",
              "name": "owner",
              "type": "address"
            },
            {
              "internalType": "bool",
              "name": "booked",
              "type": "bool"
            },
            {
              "internalType": "bool",
              "name": "deleted",
              "type": "bool"
            },
            {
              "internalType": "uint256",
              "name": "timestamp",
              "type": "uint256"
            }
          ],
          "internalType": "struct fyp_contract.ApartmentStruct",
          "name": "",
          "type": "tuple"
        }
      ],
      "stateMutability": "view",
      "type": "function"
    },
    {
      "inputs": [],
      "name": "getApartments",
      "outputs": [
        {
          "components": [
            {
              "internalType": "uint256",
              "name": "id",
              "type": "uint256"
            },
            {
              "internalType": "string",
              "name": "name",
              "type": "string"
            },
            {
              "internalType": "string",
              "name": "description",
              "type": "string"
            },
            {
              "internalType": "string",
              "name": "location",
              "type": "string"
            },
            {
              "internalType": "string",
              "name": "images",
              "type": "string"
            },
            {
              "internalType": "uint256",
              "name": "rooms",
              "type": "uint256"
            },
            {
              "internalType": "uint256",
              "name": "price",
              "type": "uint256"
            },
            {
              "internalType": "address",
              "name": "owner",
              "type": "address"
            },
            {
              "internalType": "bool",
              "name": "booked",
              "type": "bool"
            },
            {
              "internalType": "bool",
              "name": "deleted",
              "type": "bool"
            },
            {
              "internalType": "uint256",
              "name": "timestamp",
              "type": "uint256"
            }
          ],
          "internalType": "struct fyp_contract.ApartmentStruct[]",
          "name": "Apartments",
          "type": "tuple[]"
        }
      ],
      "stateMutability": "view",
      "type": "function"
    },
    {
      "inputs": [
        {
          "internalType": "uint256",
          "name": "aid",
          "type": "uint256"
        },
        {
          "internalType": "uint256",
          "name": "bookingId",
          "type": "uint256"
        }
      ],
      "name": "getBooking",
      "outputs": [
        {
          "components": [
            {
              "internalType": "uint256",
              "name": "id",
              "type": "uint256"
            },
            {
              "internalType": "uint256",
              "name": "aid",
              "type": "uint256"
            },
            {
              "internalType": "address",
              "name": "tenant",
              "type": "address"
            },
            {
              "internalType": "uint256",
              "name": "date",
              "type": "uint256"
            },
            {
              "internalType": "uint256",
              "name": "price",
              "type": "uint256"
            },
            {
              "internalType": "bool",
              "name": "checked",
              "type": "bool"
            },
            {
              "internalType": "bool",
              "name": "cancelled",
              "type": "bool"
            },
            {
              "internalType": "bool",
              "name": "paidToOwner",
              "type": "bool"
            }
          ],
          "internalType": "struct fyp_contract.BookingStruct",
          "name": "",
          "type": "tuple"
        }
      ],
      "stateMutability": "view",
      "type": "function"
    },
    {
      "inputs": [
        {
          "internalType": "uint256",
          "name": "aid",
          "type": "uint256"
        }
      ],
      "name": "getBookings",
      "outputs": [
        {
          "components": [
            {
              "internalType": "uint256",
              "name": "id",
              "type": "uint256"
            },
            {
              "internalType": "uint256",
              "name": "aid",
              "type": "uint256"
            },
            {
              "internalType": "address",
              "name": "tenant",
              "type": "address"
            },
            {
              "internalType": "uint256",
              "name": "date",
              "type": "uint256"
            },
            {
              "internalType": "uint256",
              "name": "price",
              "type": "uint256"
            },
            {
              "internalType": "bool",
              "name": "checked",
              "type": "bool"
            },
            {
              "internalType": "bool",
              "name": "cancelled",
              "type": "bool"
            },
            {
              "internalType": "bool",
              "name": "paidToOwner",
              "type": "bool"
            }
          ],
          "internalType": "struct fyp_contract.BookingStruct[]",
          "name": "",
          "type": "tuple[]"
        }
      ],
      "stateMutability": "view",
      "type": "function"
    },
    {
      "inputs": [
        {
          "internalType": "uint256",
          "name": "aid",
          "type": "uint256"
        }
      ],
      "name": "getQualifiedReviewers",
      "outputs": [
        {
          "internalType": "address[]",
          "name": "Tenants",
          "type": "address[]"
        }
      ],
      "stateMutability": "view",
      "type": "function"
    },
    {
      "inputs": [
        {
          "internalType": "uint256",
          "name": "aid",
          "type": "uint256"
        }
      ],
      "name": "getReviews",
      "outputs": [
        {
          "components": [
            {
              "internalType": "uint256",
              "name": "id",
              "type": "uint256"
            },
            {
              "internalType": "uint256",
              "name": "aid",
              "type": "uint256"
            },
            {
              "internalType": "string",
              "name": "reviewText",
              "type": "string"
            },
            {
              "internalType": "uint256",
              "name": "timestamp",
              "type": "uint256"
            },
            {
              "internalType": "address",
              "name": "owner",
              "type": "address"
            }
          ],
          "internalType": "struct fyp_contract.ReviewStruct[]",
          "name": "",
          "type": "tuple[]"
        }
      ],
      "stateMutability": "view",
      "type": "function"
    },
    {
      "inputs": [
        {
          "internalType": "uint256",
          "name": "aid",
          "type": "uint256"
        }
      ],
      "name": "getUnavailableDates",
      "outputs": [
        {
          "internalType": "uint256[]",
          "name": "",
          "type": "uint256[]"
        }
      ],
      "stateMutability": "view",
      "type": "function"
    },
    {
      "inputs": [],
      "name": "owner",
      "outputs": [
        {
          "internalType": "address",
          "name": "",
          "type": "address"
        }
      ],
      "stateMutability": "view",
      "type": "function"
    },
    {
      "inputs": [
        {
          "internalType": "uint256",
          "name": "aid",
          "type": "uint256"
        },
        {
          "internalType": "uint256",
          "name": "bookingId",
          "type": "uint256"
        }
      ],
      "name": "refundBooking",
      "outputs": [],
      "stateMutability": "nonpayable",
      "type": "function"
    },
    {
      "inputs": [],
      "name": "renounceOwnership",
      "outputs": [],
      "stateMutability": "nonpayable",
      "type": "function"
    },
    {
      "inputs": [
        {
          "internalType": "uint256",
          "name": "appartmentId",
          "type": "uint256"
        }
      ],
      "name": "tenantBooked",
      "outputs": [
        {
          "internalType": "bool",
          "name": "",
          "type": "bool"
        }
      ],
      "stateMutability": "view",
      "type": "function"
    },
    {
      "inputs": [
        {
          "internalType": "address",
          "name": "newOwner",
          "type": "address"
        }
      ],
      "name": "transferOwnership",
      "outputs": [],
      "stateMutability": "nonpayable",
      "type": "function"
    },
    {
      "stateMutability": "payable",
      "type": "receive"
    }
  ],
  "bytecode": "0x608060405234801561001057600080fd5b5061001a33610023565b60018055610073565b600080546001600160a01b038381166001600160a01b0319831681178455604051919092169283917f8be0079c531659141344cd1fd0a4f28419497f9722a3daafe3b4186f6b6457e09190a35050565b612bc880620000836000396000f3fe6080604052600436106101025760003560e01c80639f31a2be11610095578063db2f80b711610064578063db2f80b71461033f578063dec30d391461036c578063df6e02221461038c578063f2fde38b1461039f578063f4010995146103bf57610109565b80639f31a2be14610285578063b1c98099146102d0578063c4452e06146102f2578063d57a7b541461031f57610109565b8063715018a6116100d1578063715018a6146101fb57806378419f61146102105780638da5cb5b146102305780639d4a22551461025857610109565b80630bb9ce3314610156578063455b30701461018c5780635bb0c5d6146101b957806367626e5d146101db57610109565b3661010957005b60405162461bcd60e51b815260206004820152601760248201527f46756e6374696f6e20646f6573206e6f7420657869737400000000000000000060448201526064015b60405180910390fd5b34801561016257600080fd5b506101766101713660046122fd565b6103ec565b6040516101839190612316565b60405180910390f35b34801561019857600080fd5b506101ac6101a7366004612363565b610595565b60405161018391906123e1565b3480156101c557600080fd5b506101d96101d43660046124a7565b610647565b005b3480156101e757600080fd5b506101d96101f6366004612363565b610871565b34801561020757600080fd5b506101d9610cb9565b34801561021c57600080fd5b506101d961022b366004612363565b610ccd565b34801561023c57600080fd5b506000546040516001600160a01b039091168152602001610183565b34801561026457600080fd5b506102786102733660046122fd565b610ec0565b6040516101839190612534565b34801561029157600080fd5b506102c06102a03660046122fd565b336000908152600960209081526040808320938352929052205460ff1690565b6040519015158152602001610183565b3480156102dc57600080fd5b506102e5610ffb565b604051610183919061269f565b3480156102fe57600080fd5b5061031261030d3660046122fd565b6113d6565b6040516101839190612701565b34801561032b57600080fd5b506101d961033a36600461271b565b6116aa565b34801561034b57600080fd5b5061035f61035a3660046122fd565b611a11565b6040516101839190612815565b34801561037857600080fd5b506101d96103873660046122fd565b611a73565b6101d961039a366004612828565b611b9e565b3480156103ab57600080fd5b506101d96103ba3660046128da565b611ef2565b3480156103cb57600080fd5b506103df6103da3660046122fd565b611f6b565b6040516101839190612903565b60606000805b60008481526004602052604090205481101561046457600084815260046020526040902080548290811061042857610428612946565b600091825260209091206005600690920201015460ff1615610452578161044e81612972565b9250505b8061045c81612972565b9150506103f2565b508067ffffffffffffffff81111561047e5761047e6123f0565b6040519080825280602002602001820160405280156104a7578160200160208202803683370190505b5091506000805b60008581526004602052604090205481101561058d5760008581526004602052604090208054829081106104e4576104e4612946565b600091825260209091206005600690920201015460ff161561057b57600085815260046020526040902080548290811061052057610520612946565b60009182526020909120600260069092020101546001600160a01b0316848361054881612972565b94508151811061055a5761055a612946565b60200260200101906001600160a01b031690816001600160a01b0316815250505b8061058581612972565b9150506104ae565b505050919050565b61059d612242565b60008381526004602052604090208054839081106105bd576105bd612946565b600091825260209182902060408051610100808201835260069094029092018054835260018101549483019490945260028401546001600160a01b031690820152600383015460608201526004830154608082015260059092015460ff808216151560a08501529181048216151560c084015262010000900416151560e082015290505b92915050565b60008281526006602052604090205460ff166106a55760405162461bcd60e51b815260206004820152601860248201527f4170706172746d656e74206e6f7420617661696c61626c650000000000000000604482015260640161014d565b33600090815260096020908152604080832085845290915290205460ff1661070f5760405162461bcd60e51b815260206004820152601860248201527f426f6f6b206669727374206265666f7265207265766965770000000000000000604482015260640161014d565b60008151116107605760405162461bcd60e51b815260206004820152601b60248201527f52657669657720746578742063616e6e6f7420626520656d7074790000000000604482015260640161014d565b61079b6040518060a001604052806000815260200160008152602001606081526020016000815260200160006001600160a01b031681525090565b602081810184815260008581526005808452604080832080548088529187018881524260608901523360808901528387526001808401835591855295909320865191909202909101908155915190820155905182919060028201906108009082612a13565b5060608201516003820155608090910151600490910180546001600160a01b0319166001600160a01b0390921691909117905580513390847fb7eef3933f4402e052c1208524e086d22a676080b1d3a576614cda26681a1862426040519081526020015b60405180910390a4505050565b610879612036565b600082815260046020526040812080548390811061089957610899612946565b60009182526020909120600690910201600581015490915060ff16156108d15760405162461bcd60e51b815260040161014d90612ad3565b600581015462010000900460ff161561094a5760405162461bcd60e51b815260206004820152603560248201527f5061796d656e7420616c72656164792072656c656173656420746f206f776e65604482015274722c206e6f20726566756e6420706f737369626c6560581b606482015260840161014d565b60008381526008602090815260408083206003850154845290915290205460ff166109b75760405162461bcd60e51b815260206004820152601a60248201527f446964206e6f7420626f6f6b206f6e2074686973206461746521000000000000604482015260640161014d565b6000546001600160a01b03163314610a825760028101546001600160a01b03163314610a1c5760405162461bcd60e51b8152602060048201526014602482015273556e617574686f72697a65642074656e616e742160601b604482015260640161014d565b42816003015411610a825760405162461bcd60e51b815260206004820152602a60248201527f43616e206e6f206c6f6e67657220726566756e642c20626f6f6b696e672064616044820152691d19481cdd185c9d195960b21b606482015260840161014d565b600083815260046020526040902080546001919084908110610aa657610aa6612946565b6000918252602080832060056006909302019190910180549315156101000261ff00199094169390931790925584815260088252604080822060038501548352909252908120805460ff191690555b600084815260076020526040902054811015610bf85760038201546000858152600760205260409020805483908110610b3057610b30612946565b906000526020600020015403610be65760008481526007602052604090208054610b5c90600190612b1a565b81548110610b6c57610b6c612946565b9060005260206000200154600760008681526020019081526020016000208281548110610b9b57610b9b612946565b906000526020600020018190555060076000858152602001908152602001600020805480610bcb57610bcb612b2d565b60019003818190600052602060002001600090559055610bf8565b80610bf081612972565b915050610af5565b50610c0733826004015461208f565b600281015460048201546040805191825242602083015280516001600160a01b0390931692859287927f61c93e38c65c4ed1edccc662665ba522e338ab9bd77084cb2656594dd16c4b8f92918290030190a4600281015460048201546040805191825242602083015280516001600160a01b0390931692859287927f3331ed916429086a4e2025d847044fd86c84b94c35923a14a2af17341f20f21b92918290030190a450610cb560018055565b5050565b610cc16120f4565b610ccb600061214e565b565b6000828152600460205260408120805483908110610ced57610ced612946565b6000918252602090912060069091020160028101549091506001600160a01b03163314610d535760405162461bcd60e51b8152602060048201526014602482015273556e617574686f72697a65642074656e616e742160601b604482015260640161014d565b600581015460ff1615610d785760405162461bcd60e51b815260040161014d90612ad3565b600083815260046020526040902080546001919084908110610d9c57610d9c612946565b6000918252602080832060056006909302018201805494151560ff19958616179055908401805462ff0000191662010000179055338252600981526040808320878452825280832080549094166001179093556003905220600701546004820154610e10916001600160a01b03169061208f565b336001600160a01b031682847f5a0c8ee9ad518ef19ef65f739ffeec06ac9c16e4f21a2d7345ceb36ca72b836b8460030154610e494290565b6040805192835260208301919091520160405180910390a460008381526003602052604090206007015460048201546001600160a01b0390911690839085907f94ae267c92058f05601706a58ae1e542d892b36a57cc682b7efcf351896f8562904260408051928352602083019190915201610864565b606060056000838152602001908152602001600020805480602002602001604051908101604052809291908181526020016000905b82821015610ff057838290600052602060002090600502016040518060a00160405290816000820154815260200160018201548152602001600282018054610f3c9061298b565b80601f0160208091040260200160405190810160405280929190818152602001828054610f689061298b565b8015610fb55780601f10610f8a57610100808354040283529160200191610fb5565b820191906000526020600020905b815481529060010190602001808311610f9857829003601f168201915b505050918352505060038201546020808301919091526004909201546001600160a01b03166040909101529082526001929092019101610ef5565b505050509050919050565b6060600060015b600254811161104b57600081815260036020526040902060070154600160a81b900460ff16611039578161103581612972565b9250505b8061104381612972565b915050611002565b508067ffffffffffffffff811115611065576110656123f0565b60405190808252806020026020018201604052801561109e57816020015b61108b612296565b8152602001906001900390816110835790505b509150600060015b60025481116113d057600081815260036020526040902060070154600160a81b900460ff166113be576003600082815260200190815260200160002060405180610160016040529081600082015481526020016001820180546111089061298b565b80601f01602080910402602001604051908101604052809291908181526020018280546111349061298b565b80156111815780601f1061115657610100808354040283529160200191611181565b820191906000526020600020905b81548152906001019060200180831161116457829003601f168201915b5050505050815260200160028201805461119a9061298b565b80601f01602080910402602001604051908101604052809291908181526020018280546111c69061298b565b80156112135780601f106111e857610100808354040283529160200191611213565b820191906000526020600020905b8154815290600101906020018083116111f657829003601f168201915b5050505050815260200160038201805461122c9061298b565b80601f01602080910402602001604051908101604052809291908181526020018280546112589061298b565b80156112a55780601f1061127a576101008083540402835291602001916112a5565b820191906000526020600020905b81548152906001019060200180831161128857829003601f168201915b505050505081526020016004820180546112be9061298b565b80601f01602080910402602001604051908101604052809291908181526020018280546112ea9061298b565b80156113375780601f1061130c57610100808354040283529160200191611337565b820191906000526020600020905b81548152906001019060200180831161131a57829003601f168201915b5050509183525050600582015460208201526006820154604082015260078201546001600160a01b038116606083015260ff600160a01b8204811615156080840152600160a81b90910416151560a082015260089091015460c09091015284836113a081612972565b9450815181106113b2576113b2612946565b60200260200101819052505b806113c881612972565b9150506110a6565b50505090565b6113de612296565b6003600083815260200190815260200160002060405180610160016040529081600082015481526020016001820180546114179061298b565b80601f01602080910402602001604051908101604052809291908181526020018280546114439061298b565b80156114905780601f1061146557610100808354040283529160200191611490565b820191906000526020600020905b81548152906001019060200180831161147357829003601f168201915b505050505081526020016002820180546114a99061298b565b80601f01602080910402602001604051908101604052809291908181526020018280546114d59061298b565b80156115225780601f106114f757610100808354040283529160200191611522565b820191906000526020600020905b81548152906001019060200180831161150557829003601f168201915b5050505050815260200160038201805461153b9061298b565b80601f01602080910402602001604051908101604052809291908181526020018280546115679061298b565b80156115b45780601f10611589576101008083540402835291602001916115b4565b820191906000526020600020905b81548152906001019060200180831161159757829003601f168201915b505050505081526020016004820180546115cd9061298b565b80601f01602080910402602001604051908101604052809291908181526020018280546115f99061298b565b80156116465780601f1061161b57610100808354040283529160200191611646565b820191906000526020600020905b81548152906001019060200180831161162957829003601f168201915b5050509183525050600582015460208201526006820154604082015260078201546001600160a01b038116606083015260ff600160a01b8204811615156080840152600160a81b90910416151560a082015260089091015460c09091015292915050565b60008651116116f25760405162461bcd60e51b81526020600482015260146024820152734e616d652063616e6e6f7420626520656d70747960601b604482015260640161014d565b60008551116117435760405162461bcd60e51b815260206004820152601b60248201527f4465736372697074696f6e2063616e6e6f7420626520656d7074790000000000604482015260640161014d565b60008451116117945760405162461bcd60e51b815260206004820152601860248201527f4c6f636174696f6e2063616e6e6f7420626520656d7074790000000000000000604482015260640161014d565b60008351116117de5760405162461bcd60e51b8152602060048201526016602482015275496d616765732063616e6e6f7420626520656d70747960501b604482015260640161014d565b600082116118255760405162461bcd60e51b8152602060048201526014602482015273526f6f6d732063616e6e6f74206265207a65726f60601b604482015260640161014d565b6000811161186c5760405162461bcd60e51b815260206004820152601460248201527350726963652063616e6e6f74206265207a65726f60601b604482015260640161014d565b61187a600280546001019055565b611882612296565b60025481526020810187905260408101869052606081018590526080810184905260a0810183905260c081018290523360e08201524261014082015280516000908152600660205260408120805460ff1916600117905581906003906118e760025490565b81526020808201929092526040016000208251815590820151600182019061190f9082612a13565b50604082015160028201906119249082612a13565b50606082015160038201906119399082612a13565b506080820151600482019061194e9082612a13565b5060a0820151600582015560c0820151600682015560e08201516007820180546101008501516101208601511515600160a81b0260ff60a81b19911515600160a01b026001600160a81b03199093166001600160a01b03909516949094179190911716919091179055610140918201516008909101558151908201516040513392917f67fc8b5b20bb28e59bab5c975405fb0427c8b3848cca6b470725fac9554708b891611a00918c91889190612b43565b60405180910390a350505050505050565b600081815260076020908152604091829020805483518184028101840190945280845260609392830182828015611a6757602002820191906000526020600020905b815481526020019060010190808311611a53575b50505050509050919050565b60008181526006602052604090205460ff161515600114611acd5760405162461bcd60e51b8152602060048201526014602482015273105c1c185c9d1b595b9d081b9bdd08199bdd5b9960621b604482015260640161014d565b6000818152600360205260409020600701546001600160a01b03163314611b2c5760405162461bcd60e51b8152602060048201526013602482015272556e617574686f72697a656420656e7469747960681b604482015260640161014d565b6000818152600660209081526040808320805460ff1916905560039091529020600701805460ff60a81b1916600160a81b17905533817f39dceb029941c80d970caa1e3d2706f9b2a65aa9b7fad8522ebe973cf4633027611b8a4290565b60405190815260200160405180910390a350565b60008281526006602052604090205460ff16611bf35760405162461bcd60e51b815260206004820152601460248201527341706172746d656e74206e6f7420666f756e642160601b604482015260640161014d565b8051600083815260036020526040902060060154611c119190612b68565b341015611c555760405162461bcd60e51b8152602060048201526012602482015271496e73756666696369656e742066756e642160701b604482015260640161014d565b611c5f828261219e565b611cab5760405162461bcd60e51b815260206004820152601e60248201527f426f6f6b6564206461746520666f756e6420616d6f6e67206461746573210000604482015260640161014d565b80516000838152600360205260408120600601549091611cca91612b68565b6000848152600460205260408120549192505b8351811015611ead57611cee612242565b60208082018790526000878152600490915260409081902054825233908201528451859083908110611d2257611d22612946565b602090810291909101810151606083019081526000888152600380845260408083206006908101546080880190815260e088018581528d865260048089528487208054600180820183559189528a89208c51919096029095019485558a8a015185820155858b01516002860180546001600160a01b0319166001600160a01b0390921691909117905597519584019590955590519382019390935560a08701516005909101805460c0890151945161ffff1990911692151561ff00191692909217610100941515949094029390931762ff000019166201000091151591909102179091558982526008909352918220875191929091889086908110611e2957611e29612946565b6020026020010151815260200190815260200160002060006101000a81548160ff02191690831515021790555060076000878152602001908152602001600020858381518110611e7b57611e7b612946565b602090810291909101810151825460018101845560009384529190922001555080611ea581612972565b915050611cdd565b503381857f5751b9060dc961a39043239ba43b0e3f56d55dac2c0289fa0cb6161ff4161177868642604051611ee493929190612b7f565b60405180910390a450505050565b611efa6120f4565b6001600160a01b038116611f5f5760405162461bcd60e51b815260206004820152602660248201527f4f776e61626c653a206e6577206f776e657220697320746865207a65726f206160448201526564647265737360d01b606482015260840161014d565b611f688161214e565b50565b606060046000838152602001908152602001600020805480602002602001604051908101604052809291908181526020016000905b82821015610ff057600084815260209081902060408051610100808201835260068702909301805482526001808201548387015260028201546001600160a01b03169383019390935260038101546060830152600481015460808301526005015460ff808216151560a08401529381048416151560c0830152620100009004909216151560e08301529083529092019101611fa0565b6002600154036120885760405162461bcd60e51b815260206004820152601f60248201527f5265656e7472616e637947756172643a207265656e7472616e742063616c6c00604482015260640161014d565b6002600155565b6000826001600160a01b03168260405160006040518083038185875af1925050503d80600081146120dc576040519150601f19603f3d011682016040523d82523d6000602084013e6120e1565b606091505b50509050806120ef57600080fd5b505050565b6000546001600160a01b03163314610ccb5760405162461bcd60e51b815260206004820181905260248201527f4f776e61626c653a2063616c6c6572206973206e6f7420746865206f776e6572604482015260640161014d565b600080546001600160a01b038381166001600160a01b0319831681178455604051919092169283917f8be0079c531659141344cd1fd0a4f28419497f9722a3daafe3b4186f6b6457e09190a35050565b60006001815b835181101561223a5760005b6000868152600760205260409020548110156122275760008681526007602052604090208054829081106121e6576121e6612946565b906000526020600020015485838151811061220357612203612946565b60200260200101510361221557600092505b8061221f81612972565b9150506121b0565b508061223281612972565b9150506121a4565b509392505050565b604051806101000160405280600081526020016000815260200160006001600160a01b0316815260200160008152602001600081526020016000151581526020016000151581526020016000151581525090565b6040518061016001604052806000815260200160608152602001606081526020016060815260200160608152602001600081526020016000815260200160006001600160a01b03168152602001600015158152602001600015158152602001600081525090565b60006020828403121561230f57600080fd5b5035919050565b6020808252825182820181905260009190848201906040850190845b818110156123575783516001600160a01b031683529284019291840191600101612332565b50909695505050505050565b6000806040838503121561237657600080fd5b50508035926020909101359150565b805182526020810151602083015260018060a01b036040820151166040830152606081015160608301526080810151608083015260a0810151151560a083015260c0810151151560c083015260e0810151151560e08301525050565b61010081016106418284612385565b634e487b7160e01b600052604160045260246000fd5b604051601f8201601f1916810167ffffffffffffffff8111828210171561242f5761242f6123f0565b604052919050565b600082601f83011261244857600080fd5b813567ffffffffffffffff811115612462576124626123f0565b612475601f8201601f1916602001612406565b81815284602083860101111561248a57600080fd5b816020850160208301376000918101602001919091529392505050565b600080604083850312156124ba57600080fd5b82359150602083013567ffffffffffffffff8111156124d857600080fd5b6124e485828601612437565b9150509250929050565b6000815180845260005b81811015612514576020818501810151868301820152016124f8565b506000602082860101526020601f19601f83011685010191505092915050565b60006020808301818452808551808352604092508286019150828160051b87010184880160005b838110156125c457603f19898403018552815160a0815185528882015189860152878201518189870152612591828701826124ee565b606084810151908801526080938401516001600160a01b031693909601929092525050938601939086019060010161255b565b509098975050505050505050565b60006101608251845260208301518160208601526125f2828601826124ee565b9150506040830151848203604086015261260c82826124ee565b9150506060830151848203606086015261262682826124ee565b9150506080830151848203608086015261264082826124ee565b91505060a083015160a085015260c083015160c085015260e083015161267160e08601826001600160a01b03169052565b5061010083810151151590850152610120808401511515908501526101409283015192909301919091525090565b6000602080830181845280855180835260408601915060408160051b870101925083870160005b828110156126f457603f198886030184526126e28583516125d2565b945092850192908501906001016126c6565b5092979650505050505050565b60208152600061271460208301846125d2565b9392505050565b60008060008060008060c0878903121561273457600080fd5b863567ffffffffffffffff8082111561274c57600080fd5b6127588a838b01612437565b9750602089013591508082111561276e57600080fd5b61277a8a838b01612437565b9650604089013591508082111561279057600080fd5b61279c8a838b01612437565b955060608901359150808211156127b257600080fd5b506127bf89828a01612437565b9350506080870135915060a087013590509295509295509295565b600081518084526020808501945080840160005b8381101561280a578151875295820195908201906001016127ee565b509495945050505050565b60208152600061271460208301846127da565b6000806040838503121561283b57600080fd5b8235915060208084013567ffffffffffffffff8082111561285b57600080fd5b818601915086601f83011261286f57600080fd5b813581811115612881576128816123f0565b8060051b9150612892848301612406565b81815291830184019184810190898411156128ac57600080fd5b938501935b838510156128ca578435825293850193908501906128b1565b8096505050505050509250929050565b6000602082840312156128ec57600080fd5b81356001600160a01b038116811461271457600080fd5b6020808252825182820181905260009190848201906040850190845b8181101561235757612932838551612385565b92840192610100929092019160010161291f565b634e487b7160e01b600052603260045260246000fd5b634e487b7160e01b600052601160045260246000fd5b6000600182016129845761298461295c565b5060010190565b600181811c9082168061299f57607f821691505b6020821081036129bf57634e487b7160e01b600052602260045260246000fd5b50919050565b601f8211156120ef57600081815260208120601f850160051c810160208610156129ec5750805b601f850160051c820191505b81811015612a0b578281556001016129f8565b505050505050565b815167ffffffffffffffff811115612a2d57612a2d6123f0565b612a4181612a3b845461298b565b846129c5565b602080601f831160018114612a765760008415612a5e5750858301515b600019600386901b1c1916600185901b178555612a0b565b600085815260208120601f198616915b82811015612aa557888601518255948401946001909101908401612a86565b5085821015612ac35787850151600019600388901b60f8161c191681555b5050505050600190811b01905550565b60208082526027908201527f41706172746d656e7420616c726561647920636865636b6564206f6e207468696040820152667320646174652160c81b606082015260800190565b818103818111156106415761064161295c565b634e487b7160e01b600052603160045260246000fd5b606081526000612b5660608301866124ee565b60208301949094525060400152919050565b80820281158282048414176106415761064161295c565b606081526000612b5660608301866127da56fea264697066735822122015125c5c743ebdabb1f9e38f704228ab3098b83beb4f37e19b50a3ef0c9f8f1f64736f6c63430008130033",
  "linkReferences": {},
  "deployedLinkReferences": {}
}